:100000000C942A000C94170A0C944A0A0C947D0A4A
:100010000C94A00D0C946D0D0C9447000C94070DDE
:100020000C943A0D0C94D40C0C94A10C0C946E0C02
:100030000C9447000C9447000C9447000C94470024
:100040000C9447000C9447000C9447000C94470014
:100050000C94470011241FBECFE5D8E0DEBFCDBF12
:1000600010E0A0E6B0E0E4EDFCE302C005900D92E4
:10007000AC37B107D9F710E0ACE7B0E001C01D9292
:10008000AA39B107E1F70E942E1A0C94681E0C944D
:100090000000EF92FF920F931F937B018C0120E0F1
:1000A00030E040E05FE40E94490388238CF0C801FF
:1000B000B70120E030E040E05FE40E94C1010E940F
:1000C000A9039B01AC01205030404040504806C07D
:1000D000C801B7010E94A9039B01AC01B901CA0183
:1000E0001F910F91FF90EF900895A0E0B0E0EBE733
:1000F000F0E00C94311EDC012B01FA019C9192304E
:1001000008F439C1EB018881823008F433C194309E
:1001100069F4843009F02FC111969C91119789815F
:10012000981709F428C1A0E6B0E025C1843009F48D
:1001300021C18230A9F4923009F01DC19A01AD01AC
:1001400088E0EA010990AE01E90109929E0181501F
:10015000C1F7E201898111969C918923818308C1AD
:10016000923009F407C112962D903C901397EB0141
:100170008A819B811496AD90BD90CD90DC901797AD
:10018000EC80FD800E811F819101281B390BB90184
:1001900037FF04C066277727621B730B6032710537
:1001A0000CF061C0121613066CF537014801062EDB
:1001B00004C096948794779467940A94D2F721E0C8
:1001C00030E040E050E004C0220F331F441F551FB1
:1001D0006A95D2F721503040404050402E213F21B7
:1001E00040235123211531054105510521F021E01E
:1001F00030E040E050E079018A01E628F72808293C
:1002000019293CC0232BD1F1260E371E350146019A
:10021000062E04C096948794779467940A94D2F734
:1002200021E030E040E050E004C0220F331F441FC3
:10023000551F6A95D2F721503040404050402A2146
:100240003B214C215D21211531054105510521F04E
:1002500021E030E040E050E059016A01A628B728CB
:10026000C828D9280BC0821593052CF01C01AA249C
:10027000BB24650103C0EE24FF24870111969C91E5
:10028000D20111968C91981709F445C0992339F041
:10029000A80197012A193B094C095D0906C0A6016E
:1002A00095012E193F09400B510B57FD08C01182D3
:1002B0003382228224833583468357831DC081E0A5
:1002C00081833382228288279927DC01821B930B4A
:1002D000A40BB50B84839583A683B7830DC0220F2F
:1002E000331F441F551F24833583468357838281E0
:1002F000938101979383828324813581468157813D
:10030000DA01C9010197A109B1098F5F9F4FAF4F72
:10031000BF4328F30BC0918333822282EA0CFB1C7B
:100320000C1D1D1DE482F5820683178383E0808304
:10033000248135814681578157FF1AC0C901AA27F8
:1003400097FDA095BA2F81709070A070B0705695EF
:10035000479537952795822B932BA42BB52B848318
:100360009583A683B7838281938101969383828349
:10037000DF0101C0D201CD01CDB7DEB7E2E10C94BF
:100380004D1EA0E2B0E0E7ECF1E00C943D1E698365
:100390007A838B839C832D833E834F835887E9E048
:1003A000EE2EF12CEC0EFD1ECE010196B7010E943F
:1003B000D2048E010F5E1F4FCE010596B8010E9438
:1003C000D2048A8991E089278A8BC701B801AE01DE
:1003D000475E5F4F0E9475000E94FD03A096E6E015
:1003E0000C94591EA0E2B0E0E8EFF1E00C943D1E41
:1003F00069837A838B839C832D833E834F835887C5
:10040000F9E0EF2EF12CEC0EFD1ECE010196B701A6
:100410000E94D2048E010F5E1F4FCE010596B801D7
:100420000E94D204C701B801AE01475E5F4F0E942F
:1004300075000E94FD03A096E6E00C94591EA0E210
:10044000B0E0E5E2F2E00C94311E69837A838B839D
:100450009C832D833E834F835887CE010196BE0136
:10046000675F7F4F0E94D204CE010596BE016F5E8A
:100470007F4F0E94D2049985923088F0898982301A
:10048000C8F0943019F4823051F404C0843029F457
:10049000923081F480E690E0C6C0923049F420E0CA
:1004A0009A858A89981321E02A87CE010996BBC0D4
:1004B000823049F420E09A858A89981321E02A8BBA
:1004C000CE014196B0C02D843E844F8458886D88FB
:1004D0007E888F88988CEE24FF248701AA24BB2471
:1004E000650140E050E060E070E0E0E0F0E0C10174
:1004F00081709070892BE9F0E60CF71C081D191D1E
:100500009A01AB012A0D3B1D4C1D5D1D80E090E062
:10051000A0E0B0E0E614F7040805190520F481E036
:1005200090E0A0E0B0E0BA01A901480F591F6A1F8E
:100530007B1FAA0CBB1CCC1CDD1C97FE08C081E0F5
:1005400090E0A0E0B0E0A82AB92ACA2ADB2A3196B6
:10055000E032F10549F0660C771C881C991C569412
:10056000479437942794C3CFFA85EA892B893C892D
:100570008B859C85280F391F2E5F3F4F17C0CA01FE
:1005800081709070892B61F016950795F794E79428
:1005900080E090E0A0E0B0E8E82AF92A0A2B1B2BC3
:1005A00076956795579547952F5F3F4F77FDE7CF36
:1005B0000CC0440F551F661F771F17FD4160EE0CDE
:1005C000FF1C001F111F21503040403090E05907A0
:1005D00090E0690790E4790760F32B8F3C8FDB0193
:1005E000CA018F779070A070B07080349105A1051A
:1005F000B10561F447FD0AC0E114F10401051105DC
:1006000029F0405C5F4F6F4F7F4F40781A8EFE1786
:1006100011F081E08A8F4D8F5E8F6F8F78A383E01A
:10062000898FCE0149960E94FD03A096E2E10C94C9
:100630004D1EA8E1B0E0EFE1F3E00C943D1E6983AC
:100640007A838B839C832D833E834F83588789E0F5
:10065000E82EF12CEC0EFD1ECE010196B7010E9492
:10066000D2048E010F5E1F4FCE010596B8010E9485
:10067000D2048985823040F08989823028F0C70110
:10068000B8010E944A0501C08FEF6896E6E00C941D
:10069000591EA8E1B0E0EFE4F3E00C943D1E69833D
:1006A0007A838B839C832D833E834F83588789E095
:1006B000E82EF12CEC0EFD1ECE010196B7010E9432
:1006C000D2048E010F5E1F4FCE010596B8010E9425
:1006D000D2048985823040F08989823028F0C701B0
:1006E000B8010E944A0501C08FEF6896E6E00C94BD
:1006F000591EA8E1B0E0EFE7F3E00C943D1E6983DA
:100700007A838B839C832D833E834F83588789E034
:10071000E82EF12CEC0EFD1ECE010196B7010E94D1
:10072000D2048E010F5E1F4FCE010596B8010E94C4
:10073000D2048985823040F08989823028F0C7014F
:10074000B8010E944A0501C081E06896E6E00C9479
:10075000591EACE0B0E0EFEAF3E00C94411E69836F
:100760007A838B839C83CE010196BE016B5F7F4FA2
:100770000E94D2048D81823061F1823050F1843048
:1007800021F48E81882351F12EC02F81388537FDC9
:1007900020C06E812F3131051CF06623F9F023C093
:1007A0008EE190E0821B930B29853A854B855C8511
:1007B00004C056954795379527958A95D2F76623B5
:1007C000B1F050954095309521953F4F4F4F5F4F79
:1007D0000EC020E030E040E050E009C02FEF3FEFD6
:1007E0004FEF5FE704C020E030E040E050E8B9019F
:1007F000CA012C96E2E00C945D1EDF92EF92FF920C
:100800000F931F93FC01E480F58006811781D1804E
:100810008081823048F480E090E0A0E1B0E0E82AF6
:10082000F92A0A2B1B2BA5C0843009F49FC0823003
:1008300021F4EE24FF24870105C0E114F104010531
:10084000110519F4E0E0F0E096C0628173819FEF3A
:10085000623879070CF05BC022E83FEF261B370BAC
:100860002A3131052CF020E030E040E050E02AC091
:10087000B801A701022E04C0769567955795479554
:100880000A94D2F781E090E0A0E0B0E004C0880FC5
:10089000991FAA1FBB1F2A95D2F70197A109B10979
:1008A0008E219F21A023B1230097A105B10521F03E
:1008B00081E090E0A0E0B0E09A01AB01282B392B59
:1008C0004A2B5B2BDA01C9018F779070A070B07052
:1008D00080349105A105B10539F427FF09C0205CDA
:1008E0003F4F4F4F5F4F04C0215C3F4F4F4F5F4F13
:1008F000E0E0F0E02030A0E03A07A0E04A07A0E402
:100900005A0710F0E1E0F0E079018A0127C0603871
:10091000710564F5FB01E158FF4FD801C7018F77DE
:100920009070A070B07080349105A105B10539F4C4
:10093000E7FE0DC080E490E0A0E0B0E004C08FE3EB
:1009400090E0A0E0B0E0E80EF91E0A1F1B1F17FFA1
:1009500005C016950795F794E794319687E01695AC
:100960000795F794E7948A95D1F705C0EE24FF2404
:100970008701EFEFF0E06E2F679566276795902F60
:100980009F77D794DD24D7948E2F8695492F462BB9
:10099000582F5D29B701CA011F910F91FF90EF9069
:1009A000DF900895FC01DB01408151812281622F9B
:1009B0006F7770E0221F2227221F9381892F880FD3
:1009C000822B282F30E0991F9927991F11969C930D
:1009D000119721153105A9F54115510561057105DD
:1009E00011F482E037C082E89FEF13969C938E93B8
:1009F00012979A01AB0167E0220F331F441F551F66
:100A00006A95D1F783E08C930DC0220F331F441FEA
:100A1000551F12968D919C911397019713969C9355
:100A20008E931297203080E0380780E0480780E4FA
:100A3000580758F314962D933D934D935C93179755
:100A400008952F3F310579F4411551056105710570
:100A500019F484E08C93089564FF03C081E08C93C3
:100A600012C01C9210C02F57304013963C932E9307
:100A7000129783E08C9387E0440F551F661F771F02
:100A80008A95D1F7706414964D935D936D937C9322
:100A9000179708951F93DC01FB019C91923008F495
:100AA00047C08081823008F443C0943051F41196DD
:100AB0001C91843099F58181682F70E0611B710968
:100AC0003FC0843021F0923031F48230B9F181811D
:100AD000882389F12DC011961C9111978230F1F075
:100AE00081811817D9F412962D913C911397828128
:100AF00093818217930794F028173907BCF0149656
:100B00008D919D910D90BC91A02D248135814681C0
:100B10005781281739074A075B0718F4112341F05A
:100B20000AC082179307A407B50740F4112319F0F0
:100B300061E070E005C06FEF7FEF02C060E070E041
:100B4000CB011F910895DF93CF93CDB7DEB72E97DA
:100B50000FB6F894DEBF0FBECDBF8A836B834C8384
:100B600019828B81883018F081E0898310C28A81D4
:100B7000282F30E03E872D878D859E858130910519
:100B800009F492C02D853E85223031052CF48D85E7
:100B90009E85009771F0F9C12D853E852230310583
:100BA00009F4FDC08D859E858330910509F472C1DD
:100BB000ECC18C81282F30E03C872B878B859C856E
:100BC00081309105F9F02B853C852230310509F4FF
:100BD00041C08B859C85009709F063C0AAE3B0E013
:100BE000EAE3F0E08081482F8B81282F30E081E01C
:100BF00090E0022E02C0880F991F0A94E2F7842B1E
:100C00008C93C5C1AAE3B0E0EAE3F0E08081482F0D
:100C10008B81282F30E081E090E002C0880F991F7F
:100C20002A95E2F7809584238C93ABE3B0E0EBE365
:100C3000F0E08081482F8B81282F30E081E090E028
:100C4000022E02C0880F991F0A94E2F78095842330
:100C50008C939DC1AAE3B0E0EAE3F0E08081482FE5
:100C60008B81282F30E081E090E002C0880F991F2F
:100C70002A95E2F7809584238C93ABE3B0E0EBE315
:100C8000F0E08081482F8B81282F30E081E090E0D8
:100C9000022E02C0880F991F0A94E2F7842B8C93CE
:100CA00076C181E0898373C18C81282F30E03A8737
:100CB000298789859A8581309105F9F029853A85BA
:100CC0002230310509F441C089859A85009709F0E1
:100CD00063C0A7E3B0E0E7E3F0E08081482F8B81B9
:100CE000282F30E081E090E0022E02C0880F991F8B
:100CF0000A94E2F7842B8C934AC1A7E3B0E0E7E3C0
:100D0000F0E08081482F8B81282F30E081E090E057
:100D100002C0880F991F2A95E2F7809584238C934F
:100D2000A8E3B0E0E8E3F0E08081482F8B81282F32
:100D300030E081E090E0022E02C0880F991F0A94F3
:100D4000E2F7809584238C9322C1A7E3B0E0E7E328
:100D5000F0E08081482F8B81282F30E081E090E007
:100D600002C0880F991F2A95E2F7809584238C93FF
:100D7000A8E3B0E0E8E3F0E08081482F8B81282FE2
:100D800030E081E090E0022E02C0880F991F0A94A3
:100D9000E2F7842B8C93FBC081E08983F8C08C81BF
:100DA000282F30E038872F838F81988581309105F7
:100DB000F9F02F8138852230310509F441C08F8147
:100DC0009885009709F063C0A4E3B0E0E4E3F0E0A5
:100DD0008081482F8B81282F30E081E090E0022E27
:100DE00002C0880F991F0A94E2F7842B8C93CFC01E
:100DF000A4E3B0E0E4E3F0E08081482F8B81282F6A
:100E000030E081E090E002C0880F991F2A95E2F758
:100E1000809584238C93A5E3B0E0E5E3F0E0808146
:100E2000482F8B81282F30E081E090E0022E02C015
:100E3000880F991F0A94E2F7809584238C93A7C0AA
:100E4000A4E3B0E0E4E3F0E08081482F8B81282F19
:100E500030E081E090E002C0880F991F2A95E2F708
:100E6000809584238C93A5E3B0E0E5E3F0E08081F6
:100E7000482F8B81282F30E081E090E0022E02C0C5
:100E8000880F991F0A94E2F7842B8C9380C081E02D
:100E900089837DC08C81282F30E03E832D838D8116
:100EA0009E8181309105F9F02D813E8122303105FE
:100EB00009F441C08D819E81009709F063C0A1E3D0
:100EC000B0E0E1E3F0E08081482F8B81282F30E013
:100ED00081E090E0022E02C0880F991F0A94E2F789
:100EE000842B8C9354C0A1E3B0E0E1E3F0E0808177
:100EF000482F8B81282F30E081E090E002C0880FDE
:100F0000991F2A95E2F7809584238C93A2E3B0E0A1
:100F1000E2E3F0E08081482F8B81282F30E081E0F0
:100F200090E0022E02C0880F991F0A94E2F7809584
:100F300084238C932CC0A1E3B0E0E1E3F0E0808156
:100F4000482F8B81282F30E081E090E002C0880F8D
:100F5000991F2A95E2F7809584238C93A2E3B0E051
:100F6000E2E3F0E08081482F8B81282F30E081E0A0
:100F700090E0022E02C0880F991F0A94E2F7842B9A
:100F80008C9305C081E0898302C081E089838981D7
:100F90002E960FB6F894DEBF0FBECDBFCF91DF9176
:100FA0000895DF93CF9300D000D000D0CDB7DEB747
:100FB0008A836B834C8319828B81883018F081E09F
:100FC0008983ECC08A81282F30E03E832D838D8178
:100FD0009E818130910509F449C02D813E812230E6
:100FE00031052CF48D819E81009771F0D5C02D8143
:100FF0003E812230310509F46BC08D819E818330A2
:10100000910509F497C0C8C08C818130A1F4ABE38D
:10101000B0E0EBE3F0E08081482F8B81282F30E0B7
:1010200081E090E0022E02C0880F991F0A94E2F737
:10103000842B8C93B3C08C818823A9F4ABE3B0E0FC
:10104000EBE3F0E08081482F8B81282F30E081E0B6
:1010500090E0022E02C0880F991F0A94E2F7809553
:1010600084238C939BC081E0898398C08C818130DC
:10107000A1F4A8E3B0E0E8E3F0E08081482F8B81A1
:10108000282F30E081E090E0022E02C0880F991FE7
:101090000A94E2F7842B8C9381C08C818823A9F475
:1010A000A8E3B0E0E8E3F0E08081482F8B81282FAF
:1010B00030E081E090E0022E02C0880F991F0A9470
:1010C000E2F7809584238C9369C081E0898366C0B0
:1010D0008C818130A1F4A5E3B0E0E5E3F0E080810C
:1010E000482F8B81282F30E081E090E0022E02C053
:1010F000880F991F0A94E2F7842B8C934FC08C8140
:101100008823A9F4A5E3B0E0E5E3F0E08081482F6F
:101110008B81282F30E081E090E0022E02C0880F02
:10112000991F0A94E2F7809584238C9337C081E05D
:10113000898334C08C818130A1F4A2E3B0E0E2E382
:10114000F0E08081482F8B81282F30E081E090E013
:10115000022E02C0880F991F0A94E2F7842B8C9309
:101160001DC08C818823A9F4A2E3B0E0E2E3F0E0A3
:101170008081482F8B81282F30E081E090E0022E83
:1011800002C0880F991F0A94E2F7809584238C93FC
:1011900005C081E0898302C081E089838981269628
:1011A0000FB6F894DEBF0FBECDBFCF91DF9108958B
:1011B000DF93CF9300D000D00F92CDB7DEB78A83F4
:1011C0006B8319828A81282F30E03D832C834C81E8
:1011D0005D814130510509F43CC08C819D81823094
:1011E000910534F42C813D812115310571F09CC0AD
:1011F0004C815D814230510509F44FC08C819D8145
:101200008330910509F46DC08FC0ABE3B0E0EBE330
:10121000F0E08081482F8B81282F30E081E090E042
:1012200002C0880F991F2A95E2F784278C93E9E37F
:10123000F0E08081282F30E08B81882F90E0A90199
:1012400002C0559547958A95E2F7CA018170898356
:101250006BC0A8E3B0E0E8E3F0E08081482F8B8129
:10126000282F30E081E090E002C0880F991F2A9576
:10127000E2F784278C93E6E3F0E08081282F30E0CA
:101280008B81882F90E0A90102C0559547958A95DA
:10129000E2F7CA018170898347C0A5E3B0E0E5E3C6
:1012A000F0E08081482F8B81282F30E081E090E0B2
:1012B00002C0880F991F2A95E2F784278C93E3E3F5
:1012C000F0E08081282F30E08B81882F90E0A90109
:1012D00002C0559547958A95E2F7CA0181708983C6
:1012E00023C0A2E3B0E0E2E3F0E08081482F8B81ED
:1012F000282F30E081E090E002C0880F991F2A95E6
:10130000E2F784278C93E0E3F0E08081282F30E03F
:101310008B81882F90E0A90102C0559547958A9549
:10132000E2F7CA018170898389810F900F900F9035
:101330000F900F90CF91DF910895DF93CF9300D05E
:1013400000D00F92CDB7DEB78A836B8319828A8172
:10135000282F30E03D832C834C815D814130510545
:1013600041F18C819D818230910534F42C813D8145
:101370002115310561F052C04C815D81423051052B
:1013800051F18C819D8183309105B9F147C0E9E32A
:10139000F0E08081282F30E08B81882F90E0A90138
:1013A00002C0559547958A95E2F7CA0181708983F5
:1013B00035C0E6E3F0E08081282F30E08B81882F74
:1013C00090E0A90102C0559547958A95E2F7CA01B8
:1013D0008170898323C0E3E3F0E08081282F30E02F
:1013E0008B81882F90E0A90102C0559547958A9579
:1013F000E2F7CA018170898311C0E0E3F0E08081E7
:10140000282F30E08B81882F90E0A90102C05595EC
:1014100047958A95E2F7CA018170898389810F9087
:101420000F900F900F900F90CF91DF9108951F9222
:101430000F920FB60F9211242F933F934F935F9308
:101440006F937F938F939F93AF93BF93EF93FF938C
:10145000DF93CF93CDB7DEB780917C0090917D0074
:10146000009729F0E0917C00F0917D000995CF91E3
:10147000DF91FF91EF91BF91AF919F918F917F91FC
:101480006F915F914F913F912F910F900FBE0F90F1
:101490001F9018951F920F920FB60F9211242F9341
:1014A0003F934F935F936F937F938F939F93AF93EC
:1014B000BF93EF93FF93DF93CF93CDB7DEB78091C8
:1014C0007E0090917F00009729F0E0917E00F091DE
:1014D0007F000995CF91DF91FF91EF91BF91AF917F
:1014E0009F918F917F916F915F914F913F912F913C
:1014F0000F900FBE0F901F9018951F920F920FB66E
:101500000F9211242F933F934F935F936F937F9389
:101510008F939F93AF93BF93EF93FF93DF93CF93FB
:10152000CDB7DEB78091800090918100009729F0BF
:10153000E0918000F09181000995CF91DF91FF91BA
:10154000EF91BF91AF919F918F917F916F915F913B
:101550004F913F912F910F900FBE0F901F901895B4
:10156000DF93CF93CDB7DEB729970FB6F894DEBFE0
:101570000FBECDBF8A836B8319828A81882309F0CD
:101580005EC08B81282F30E0398728878885998530
:101590008130910521F128853985223031052CF4DF
:1015A00088859985009761F047C028853985223064
:1015B000310521F1888599858330910571F13CC011
:1015C000A5E5B0E0E5E5F0E080818E7F8C93A5E5B0
:1015D000B0E0E5E5F0E080818D7F8C93BAC0A5E5B1
:1015E000B0E0E5E5F0E0808181608C93A5E5B0E0B6
:1015F000E5E5F0E080818D7F8C93ABC0A5E5B0E0A0
:10160000E5E5F0E080818E7F8C93A5E5B0E0E5E52F
:10161000F0E0808182608C939CC0A5E5B0E0E5E5B8
:10162000F0E0808181608C93A5E5B0E0E5E5F0E035
:10163000808182608C938DC081E089838AC08A8199
:10164000813009F05EC08B81282F30E03F832E83EC
:101650008E819F818130910521F12E813F81223041
:1016600031052CF48E819F81009761F047C02E8157
:101670003F812230310521F18E819F818330910598
:1016800071F13CC0A5E5B0E0E5E5F0E080818B7F3D
:101690008C93A5E5B0E0E5E5F0E08081877F8C9351
:1016A00058C0A5E5B0E0E5E5F0E0808184608C936A
:1016B000A5E5B0E0E5E5F0E08081877F8C9349C047
:1016C000A5E5B0E0E5E5F0E080818B7F8C93A5E5B2
:1016D000B0E0E5E5F0E0808188608C933AC0A5E554
:1016E000B0E0E5E5F0E0808184608C93A5E5B0E0B2
:1016F000E5E5F0E0808188608C932BC081E08983F0
:1017000028C08A81823019F58B81282F30E03D83F3
:101710002C838C819D818230910531F02C813D811B
:101720002330310549F010C0A4E5B0E0E4E5F0E075
:1017300080818F7B8C930DC0A4E5B0E0E4E5F0E000
:10174000808180648C9305C081E0898302C081E040
:101750008983898129960FB6F894DEBF0FBECDBF6D
:10176000CF91DF910895DF93CF9300D0CDB7DEB74F
:101770008A8319828A81882341F4ABE5B0E0EBE5E6
:10178000F0E0808180648C9318C08A81813041F4BC
:10179000ABE5B0E0EBE5F0E0808180688C930DC0B4
:1017A0008A81823041F4ABE5B0E0EBE5F0E0808186
:1017B00080628C9302C081E0898389810F900F90B1
:1017C000CF91DF910895DF93CF9300D0CDB7DEB7EF
:1017D0008A8319828A81882341F4ABE5B0E0EBE586
:1017E000F0E080818F7B8C9318C08A81813041F436
:1017F000ABE5B0E0EBE5F0E080818F778C930DC036
:101800008A81823041F4ABE5B0E0EBE5F0E0808125
:101810008F7D8C9302C081E0898389810F900F9026
:10182000CF91DF910895DF93CF9300D000D000D007
:10183000CDB7DEB78A837C836B8319828A81282F98
:1018400030E03E832D838D819E818130910581F032
:101850002D813E812230310591F08D819E8100974E
:10186000A9F48B819C8190937D0080937C0010C0B3
:101870008B819C8190937F0080937E0009C08B8137
:101880009C81909381008093800002C081E08983D5
:10189000898126960FB6F894DEBF0FBECDBFCF91DB
:1018A000DF910895DF93CF93CDB7DEB7AFE5B0E01A
:1018B000EFE5F0E0808180688C93CF91DF9108950F
:1018C000DF93CF93CDB7DEB7AFE5B0E0EFE5F0E063
:1018D00080818F778C93CF91DF9108951F920F9223
:1018E0000FB60F9211242F933F934F935F936F93F3
:1018F0007F938F939F93AF93BF93EF93FF93DF9368
:10190000CF93CDB7DEB7809182009091830000978E
:1019100029F0E0918200F09183000995CF91DF9149
:10192000FF91EF91BF91AF919F918F917F916F91B7
:101930005F914F913F912F910F900FBE0F901F908D
:1019400018951F920F920FB60F9211242F933F9369
:101950004F935F936F937F938F939F93AF93BF93B7
:10196000EF93FF93DF93CF93CDB7DEB780918400E1
:1019700090918500009729F0E0918400F091850016
:101980000995CF91DF91FF91EF91BF91AF919F9119
:101990008F917F916F915F914F913F912F910F9018
:1019A0000FBE0F901F9018951F920F920FB60F92B7
:1019B00011242F933F934F935F936F937F938F9354
:1019C0009F93AF93BF93EF93FF93DF93CF93CDB7E5
:1019D000DEB78091860090918700009729F0E09112
:1019E0008600F09187000995CF91DF91FF91EF91EB
:1019F000BF91AF919F918F917F916F915F914F9127
:101A00003F912F910F900FBE0F901F9018951F922E
:101A10000F920FB60F9211242F933F934F935F9322
:101A20006F937F938F939F93AF93BF93EF93FF93A6
:101A3000DF93CF93CDB7DEB7809188009091890076
:101A4000009729F0E0918800F09189000995CF91E5
:101A5000DF91FF91EF91BF91AF919F918F917F9116
:101A60006F915F914F913F912F910F900FBE0F900B
:101A70001F9018951F920F920FB60F9211242F935B
:101A80003F934F935F936F937F938F939F93AF9306
:101A9000BF93EF93FF93DF93CF93CDB7DEB78091E2
:101AA0008A0090918B00009729F0E0918A00F091D4
:101AB0008B000995CF91DF91FF91EF91BF91AF918D
:101AC0009F918F917F916F915F914F913F912F9156
:101AD0000F900FBE0F901F9018951F920F920FB688
:101AE0000F9211242F933F934F935F936F937F93A4
:101AF0008F939F93AF93BF93EF93FF93DF93CF9316
:101B0000CDB7DEB780918C0090918D00009729F0C1
:101B1000E0918C00F0918D000995CF91DF91FF91BC
:101B2000EF91BF91AF919F918F917F916F915F9155
:101B30004F913F912F910F900FBE0F901F901895CE
:101B40001F920F920FB60F9211242F933F934F9332
:101B50005F936F937F938F939F93AF93BF93EF9315
:101B6000FF93DF93CF93CDB7DEB780918E00909136
:101B70008F00009729F0E0918E00F0918F00099579
:101B8000CF91DF91FF91EF91BF91AF919F918F9195
:101B90007F916F915F914F913F912F910F900FBE69
:101BA0000F901F901895DF93CF93CDB7DEB72B978B
:101BB0000FB6F894DEBF0FBECDBF9B838A83198218
:101BC000EA81FB818081882309F491C0EA81FB814D
:101BD0008081813079F4A3E5B0E0E3E5F0E0808135
:101BE000877F8C93A3E5B0E0E3E5F0E080818F7B15
:101BF0008C9316C0EA81FB818081823079F4A3E561
:101C0000B0E0E3E5F0E08081877F8C93A3E5B0E06E
:101C1000E3E5F0E0808180648C9302C081E08983F9
:101C2000EA81FB818281282F30E03B872A878A85E1
:101C30009B858130910521F12A853B852230310534
:101C40002CF48A859B85009761F047C02A853B85E7
:101C50002230310521F18A859B858330910571F110
:101C60003CC0A3E5B0E0E3E5F0E080818F7E8C939B
:101C7000A3E5B0E0E3E5F0E080818F7D8C932FC099
:101C8000A3E5B0E0E3E5F0E0808180618C93A3E51B
:101C9000B0E0E3E5F0E080818F7D8C9320C0A3E588
:101CA000B0E0E3E5F0E080818F7E8C93A3E5B0E0C7
:101CB000E3E5F0E0808180628C9311C0A3E5B0E0A1
:101CC000E3E5F0E0808180618C93A3E5B0E0E3E59B
:101CD000F0E0808180628C9302C081E08983EA8198
:101CE000FB81918180E0692F0E944C108983EA81F9
:101CF000FB818381882309F42EC1EA81FB818381E2
:101D00008130E9F4AFE4B0E0EFE4F0E080818E7F71
:101D10008C93AFE4B0E0EFE4F0E080818D7F8C93B2
:101D2000AEE4B0E0EEE4F0E08081877F8C93AEE437
:101D3000B0E0EEE4F0E080818F7E8C9346C0EA81D3
:101D4000FB8183818230E9F4AFE4B0E0EFE4F0E0BE
:101D500080818E7F8C93AFE4B0E0EFE4F0E080818F
:101D60008D7F8C93AEE4B0E0EEE4F0E0808188609B
:101D70008C93AEE4B0E0EEE4F0E080818F7E8C9353
:101D800024C0EA81FB8183818330E9F4AFE4B0E0D1
:101D9000EFE4F0E080818E7F8C93AFE4B0E0EFE47D
:101DA000F0E080818D7F8C93AEE4B0E0EEE4F0E073
:101DB000808188608C93AEE4B0E0EEE4F0E0808156
:101DC00080618C9302C081E08983EA81FB818581F7
:101DD000282F30E0398728878885998581309105BB
:101DE00021F128853985223031052CF488859985A3
:101DF000009761F047C0288539852230310521F1EF
:101E0000888599858330910571F13CC0AFE4B0E0DD
:101E1000EFE4F0E080818F7B8C93AFE4B0E0EFE4FF
:101E2000F0E080818F778C932FC0AFE4B0E0EFE4D7
:101E3000F0E0808180648C93AFE4B0E0EFE4F0E008
:101E400080818F778C9320C0AFE4B0E0EFE4F0E0C6
:101E500080818F7B8C93AFE4B0E0EFE4F0E0808191
:101E600080688C9311C0AFE4B0E0EFE4F0E08081D3
:101E700080648C93AFE4B0E0EFE4F0E080818068B0
:101E80008C9302C081E08983EA81FB818681282FBF
:101E900030E03F832E838E819F818130910521F137
:101EA0002E813F81223031052CF48E819F81009755
:101EB00061F047C02E813F812230310521F18E81B2
:101EC0009F818330910571F13CC0AFE4B0E0EFE455
:101ED000F0E080818F7E8C93AFE4B0E0EFE4F0E03F
:101EE00080818F7D8C932FC0AFE4B0E0EFE4F0E011
:101EF000808180618C93AFE4B0E0EFE4F0E080811A
:101F00008F7D8C9320C0AFE4B0E0EFE4F0E08081FF
:101F10008F7E8C93AFE4B0E0EFE4F0E080818062EC
:101F20008C9311C0AFE4B0E0EFE4F0E08081806119
:101F30008C93AFE4B0E0EFE4F0E0808180628C93BA
:101F400002C081E08983EA81FB81948181E0692F6D
:101F50000E944C108983EA81FB818781882309F4E0
:101F600091C0EA81FB818781813079F4A5E4B0E0FA
:101F7000E5E4F0E08081877F8C93A5E4B0E0E5E4C0
:101F8000F0E080818F7B8C9316C0EA81FB81878192
:101F9000823079F4A5E4B0E0E5E4F0E08081877F69
:101FA0008C93A5E4B0E0E5E4F0E0808180648C935C
:101FB00002C081E08983EA81FB818185282F30E09E
:101FC0003D832C838C819D818130910521F12C8171
:101FD0003D81223031052CF48C819D81009761F088
:101FE00047C02C813D812230310521F18C819D81BA
:101FF0008330910571F13CC0A5E4B0E0E5E4F0E088
:1020000080818F7E8C93A5E4B0E0E5E4F0E08081F0
:102010008F7D8C932FC0A5E4B0E0E5E4F0E08081F3
:1020200080618C93A5E4B0E0E5E4F0E080818F7DF1
:102030008C9320C0A5E4B0E0E5E4F0E080818F7EE1
:102040008C93A5E4B0E0E5E4F0E0808180628C93BD
:1020500011C0A5E4B0E0E5E4F0E0808180618C93FC
:10206000A5E4B0E0E5E4F0E0808180628C9302C0FA
:1020700081E08983EA81FB81908582E0692F0E945B
:102080004C10898389812B960FB6F894DEBF0FBE62
:10209000CDBFCF91DF910895DF93CF93CDB7DEB75A
:1020A00029970FB6F894DEBF0FBECDBF8A836B832E
:1020B00019828A81882309F0F3C08B81282F30E0B0
:1020C00039872887888599858430910509F477C0F8
:1020D00028853985253031058CF4888599858130AE
:1020E000910509F440C0288539852230310509F46D
:1020F00050C088859985009701F1CFC02885398522
:102100002730310509F487C0888599858830910585
:102110003CF4288539852630310509F466C0BDC0F8
:10212000888599858830910509F48BC02885398583
:102130002930310509F49BC0B0C0A3E5B0E0E3E568
:10214000F0E080818E7F8C93A3E5B0E0E3E5F0E0E2
:1021500080818D7F8C93A3E5B0E0E3E5F0E08081A2
:102160008B7F8C9386C2A3E5B0E0E3E5F0E080814D
:1021700081608C93A3E5B0E0E3E5F0E080818D7FA2
:102180008C93A3E5B0E0E3E5F0E080818B7F8C9356
:1021900070C2A3E5B0E0E3E5F0E080818E7F8C9330
:1021A000A3E5B0E0E3E5F0E0808182608C93A3E5F5
:1021B000B0E0E3E5F0E080818B7F8C935AC2A3E529
:1021C000B0E0E3E5F0E0808181608C93A3E5B0E0CE
:1021D000E3E5F0E0808182608C93A3E5B0E0E3E585
:1021E000F0E080818B7F8C9344C2A3E5B0E0E3E50F
:1021F000F0E080818E7F8C93A3E5B0E0E3E5F0E032
:1022000080818D7F8C93A3E5B0E0E3E5F0E08081F1
:1022100084608C932EC2A3E5B0E0E3E5F0E080811A
:1022200081608C93A3E5B0E0E3E5F0E080818D7FF1
:102230008C93A3E5B0E0E3E5F0E0808184608C93CB
:1022400018C2A3E5B0E0E3E5F0E080818E7F8C93D7
:10225000A3E5B0E0E3E5F0E0808182608C93A3E544
:10226000B0E0E3E5F0E0808184608C9302C2A3E5F6
:10227000B0E0E3E5F0E0808181608C93A3E5B0E01D
:10228000E3E5F0E0808182608C93A3E5B0E0E3E5D4
:10229000F0E0808184608C93ECC181E08983E9C1A6
:1022A0008A81813009F0F3C08B81282F30E03F8391
:1022B0002E838E819F818430910509F477C02E8111
:1022C0003F81253031058CF48E819F8181309105CD
:1022D00009F440C02E813F812230310509F450C0FD
:1022E0008E819F81009701F1CFC02E813F812730E1
:1022F000310509F487C08E819F81883091053CF4B7
:102300002E813F812630310509F466C0BDC08E8123
:102310009F818830910509F48BC02E813F8129303F
:10232000310509F49BC0B0C0AEE4B0E0EEE4F0E0EB
:1023300080818E7F8C93AEE4B0E0EEE4F0E08081AB
:102340008D7F8C93AEE4B0E0EEE4F0E080818B7F93
:102350008C938FC1AEE4B0E0EEE4F0E08081816068
:102360008C93AEE4B0E0EEE4F0E080818D7F8C935E
:10237000AEE4B0E0EEE4F0E080818B7F8C9379C135
:10238000AEE4B0E0EEE4F0E080818E7F8C93AEE4CA
:10239000B0E0EEE4F0E0808182608C93AEE4B0E0E7
:1023A000EEE4F0E080818B7F8C9363C1AEE4B0E01B
:1023B000EEE4F0E0808181608C93AEE4B0E0EEE486
:1023C000F0E0808182608C93AEE4B0E0EEE4F0E077
:1023D00080818B7F8C934DC1AEE4B0E0EEE4F0E001
:1023E00080818E7F8C93AEE4B0E0EEE4F0E08081FB
:1023F0008D7F8C93AEE4B0E0EEE4F0E08081846009
:102400008C9337C1AEE4B0E0EEE4F0E0808181600F
:102410008C93AEE4B0E0EEE4F0E080818D7F8C93AD
:10242000AEE4B0E0EEE4F0E0808184608C9321C102
:10243000AEE4B0E0EEE4F0E080818E7F8C93AEE419
:10244000B0E0EEE4F0E0808182608C93AEE4B0E036
:10245000EEE4F0E0808184608C930BC1AEE4B0E0E8
:10246000EEE4F0E0808181608C93AEE4B0E0EEE4D5
:10247000F0E0808182608C93AEE4B0E0EEE4F0E0C6
:10248000808184608C93F5C081E08983F2C08A8169
:10249000823009F0ECC08B81282F30E03D832C8303
:1024A0008C819D818330910509F470C02C813D8120
:1024B0002430310584F48C819D8181309105D1F1E6
:1024C0002C813D81223031050CF04AC08C819D81E8
:1024D0000097D1F0C9C02C813D812530310509F428
:1024E00081C08C819D81853091050CF465C02C8163
:1024F0003D812630310509F48BC08C819D81873068
:10250000910509F49BC0B0C0A5E4B0E0E5E4F0E0BB
:1025100080818E7F8C93A5E4B0E0E5E4F0E08081DB
:102520008D7F8C93A5E4B0E0E5E4F0E080818B7FC3
:102530008C939FC0A5E4B0E0E5E4F0E08081816089
:102540008C93A5E4B0E0E5E4F0E080818D7F8C938E
:10255000A5E4B0E0E5E4F0E080818B7F8C9389C056
:10256000A5E4B0E0E5E4F0E080818E7F8C93A5E403
:10257000B0E0E5E4F0E0808182608C93A5E4B0E017
:10258000E5E4F0E080818B7F8C9373C0A5E4B0E03C
:10259000E5E4F0E0808181608C93A5E4B0E0E5E4BF
:1025A000F0E0808182608C93A5E4B0E0E5E4F0E0A7
:1025B00080818B7F8C935DC0A5E4B0E0E5E4F0E022
:1025C00080818E7F8C93A5E4B0E0E5E4F0E080812B
:1025D0008D7F8C93A5E4B0E0E5E4F0E08081846039
:1025E0008C9347C0A5E4B0E0E5E4F0E08081816031
:1025F0008C93A5E4B0E0E5E4F0E080818D7F8C93DE
:10260000A5E4B0E0E5E4F0E0808184608C9331C023
:10261000A5E4B0E0E5E4F0E080818E7F8C93A5E452
:10262000B0E0E5E4F0E0808182608C93A5E4B0E066
:10263000E5E4F0E0808184608C931BC0A5E4B0E009
:10264000E5E4F0E0808181608C93A5E4B0E0E5E40E
:10265000F0E0808182608C93A5E4B0E0E5E4F0E0F6
:10266000808184608C9305C081E0898302C081E011
:102670008983898129960FB6F894DEBF0FBECDBF3E
:10268000CF91DF910895DF93CF9300D000D00F92C8
:10269000CDB7DEB789837B836A838981282F30E0B9
:1026A0003D832C838C819D8181309105D1F02C81DB
:1026B0003D81223031052CF48C819D81009761F0A1
:1026C00022C02C813D812230310591F08C819D8189
:1026D00083309105A1F017C0ECE5F0E08A8180839A
:1026E00012C0EAE4F0E08A819B81918380830BC071
:1026F000E8E4F0E08A819B819183808304C0E3E475
:10270000F0E08A8180830F900F900F900F900F90D0
:10271000CF91DF910895DF93CF9300D000D00F9237
:10272000CDB7DEB789837B836A838981282F30E028
:102730003D832C838C819D818130910571F02C81AA
:102740003D812230310581F08C819D81009781F49B
:10275000E2E5F0E08A8180830BC0ECE4F0E08A815E
:102760009B819183808304C0E4E4F0E08A818083CC
:102770000F900F900F900F900F90CF91DF910895D1
:10278000DF93CF9300D00F92CDB7DEB78B831A8241
:1027900019828B81882341F4E2E5F0E08081882F63
:1027A00090E09A83898314C08B81813039F4ECE402
:1027B000F0E0808191819A8389830AC08B81823085
:1027C00039F4E4E4F0E08081882F90E09A838983F3
:1027D00089819A810F900F900F90CF91DF9108958A
:1027E000DF93CF9300D00F92CDB7DEB78983898175
:1027F000282F30E03B832A838A819B818330910597
:10280000E1F12A813B81243031057CF48A819B816E
:102810008130910511F12A813B81223031052CF55F
:102820008A819B81009789F047C02A813B812530AE
:10283000310599F18A819B818530910534F12A8196
:102840003B812630310589F137C0A9E5B0E0E9E5E3
:10285000F0E0808181608C932FC0A9E5B0E0E9E5CC
:10286000F0E0808182608C9327C0A9E5B0E0E9E5C3
:10287000F0E0808184608C931FC0A9E5B0E0E9E5B9
:10288000F0E0808180618C9317C0A9E5B0E0E9E5B4
:10289000F0E0808188608C930FC0A9E5B0E0E9E5A5
:1028A000F0E0808180648C9307C0A9E5B0E0E9E5A1
:1028B000F0E0808180688C930F900F900F90CF9103
:1028C000DF910895DF93CF9300D00F92CDB7DEB79D
:1028D00089838981282F30E03B832A838A819B81E9
:1028E00083309105E1F12A813B81243031057CF46C
:1028F0008A819B818130910511F12A813B812230AF
:1029000031052CF58A819B81009789F047C02A8187
:102910003B812530310599F18A819B818530910574
:1029200034F12A813B812630310589F137C0A9E590
:10293000B0E0E9E5F0E080818E7F8C932FC0A9E5BF
:10294000B0E0E9E5F0E080818D7F8C9327C0A9E5B8
:10295000B0E0E9E5F0E080818B7F8C931FC0A9E5B2
:10296000B0E0E9E5F0E080818F7E8C9317C0A9E5A7
:10297000B0E0E9E5F0E08081877F8C930FC0A9E5A6
:10298000B0E0E9E5F0E080818F7B8C9307C0A9E59A
:10299000B0E0E9E5F0E080818F778C930F900F90A5
:1029A0000F90CF91DF910895DF93CF9300D000D0A7
:1029B0000F92CDB7DEB789837B836A838981282F05
:1029C00030E03D832C838C819D8183309105C9F15A
:1029D0002C813D81243031057CF48C819D818130B6
:1029E000910509F12C813D81223031051CF58C8146
:1029F0009D81009789F040C02C813D8125303105B3
:102A000071F18C819D818530910514F12C813D817E
:102A10002630310559F130C08A819B819093830023
:102A20008093820029C08A819B8190938500809346
:102A3000840022C08A819B819093870080938600C6
:102A40001BC08A819B81909389008093880014C069
:102A50008A819B8190938B0080938A000DC08A812C
:102A60009B8190938D0080938C0006C08A819B810E
:102A700090938F0080938E000F900F900F900F9087
:102A80000F90CF91DF910895DF93CF9300D00F92F5
:102A9000CDB7DEB79B838A831982EA81FB8180816F
:102AA000882309F460C081E063E040E00E94A30550
:102AB000EA81FB818081813079F4A3E5B0E0E3E530
:102AC000F0E0808188608C93A3E5B0E0E3E5F0E07E
:102AD000808180648C9316C0EA81FB818081823082
:102AE00079F4A3E5B0E0E3E5F0E0808188608C93C1
:102AF000A3E5B0E0E3E5F0E080818F7B8C9302C03A
:102B000081E08983EA81FB818281813079F4A3E5C8
:102B1000B0E0E3E5F0E080818F7E8C93A3E5B0E048
:102B2000E3E5F0E0808180628C9316C0EA81FB814E
:102B30008281823079F4A3E5B0E0E3E5F0E08081C2
:102B400080618C93A3E5B0E0E3E5F0E080818062F2
:102B50008C9302C081E08983EA81FB81918180E0CE
:102B6000692F0E94F716EA81FB818381882309F48B
:102B700037C1EA81FB8183818130E9F4AFE4B0E0C1
:102B8000EFE4F0E0808181608C93AFE4B0E0EFE4AB
:102B9000F0E0808182608C93AEE4B0E0EEE4F0E09F
:102BA000808188608C93AEE4B0E0EEE4F0E0808158
:102BB00080618C93ACC0EA81FB8183818230E9F42F
:102BC000AFE4B0E0EFE4F0E0808181608C93AFE4AB
:102BD000B0E0EFE4F0E0808182608C93AEE4B0E09E
:102BE000EEE4F0E08081877F8C93AEE4B0E0EEE429
:102BF000F0E0808180618C938AC0EA81FB818381CF
:102C00008A30E9F4AFE4B0E0EFE4F0E080818E7F59
:102C10008C93AFE4B0E0EFE4F0E0808182608C93CD
:102C2000AEE4B0E0EEE4F0E0808188608C93AEE446
:102C3000B0E0EEE4F0E0808180618C9368C0EA81CE
:102C4000FB8183818730E9F4AFE4B0E0EFE4F0E0AA
:102C5000808181608C93AFE4B0E0EFE4F0E08081AC
:102C60008D7F8C93AEE4B0E0EEE4F0E08081877F6E
:102C70008C93AEE4B0E0EEE4F0E080818F7E8C9344
:102C800046C0EA81FB8183818830E9F4AFE4B0E09B
:102C9000EFE4F0E080818E7F8C93AFE4B0E0EFE46E
:102CA000F0E0808182608C93AEE4B0E0EEE4F0E08E
:102CB000808188608C93AEE4B0E0EEE4F0E0808147
:102CC0008F7E8C9324C0EA81FB8183818930E9F473
:102CD000AFE4B0E0EFE4F0E0808181608C93AFE49A
:102CE000B0E0EFE4F0E0808182608C93AEE4B0E08D
:102CF000EEE4F0E0808188608C93AEE4B0E0EEE436
:102D0000F0E080818F7E8C9302C081E08983EA812C
:102D1000FB8185818130A1F483E065E040E00E9481
:102D2000A305AFE4B0E0EFE4F0E080818F7B8C930B
:102D3000AFE4B0E0EFE4F0E0808180688C9318C0ED
:102D4000EA81FB818581823099F483E065E040E08F
:102D50000E94A305AFE4B0E0EFE4F0E0808180647E
:102D60008C93AFE4B0E0EFE4F0E0808180688C9376
:102D7000EA81FB8186818130A1F483E064E040E058
:102D80000E94A305AFE4B0E0EFE4F0E080818F7E25
:102D90008C93AFE4B0E0EFE4F0E0808180628C934C
:102DA00018C0EA81FB818681823099F483E064E077
:102DB00040E00E94A305AFE4B0E0EFE4F0E08081E2
:102DC00080618C93AFE4B0E0EFE4F0E0808180625A
:102DD0008C93EA81FB81948181E0692F0E94F71630
:102DE00089810F900F900F90CF91DF910895DF931D
:102DF000CF9300D000D000D0CDB7DEB789836A83EF
:102E00008981882309F0F0C08A81282F30E03E8331
:102E10002D838D819E818430910509F477C02D81A9
:102E20003E81253031058CF48D819E818130910564
:102E300009F440C02D813E812230310509F450C093
:102E40008D819E81009701F1C2C12D813E81273085
:102E5000310509F487C08D819E81883091053CF44D
:102E60002D813E812630310509F466C0B0C18D81C7
:102E70009E818830910509F48BC02D813E812930D7
:102E8000310509F49BC0A3C1A3E5B0E0E3E5F0E0A0
:102E900080818E7F8C93A3E5B0E0E3E5F0E0808154
:102EA0008D7F8C93A3E5B0E0E3E5F0E080818B7F3C
:102EB0008C938DC1A3E5B0E0E3E5F0E08081816013
:102EC0008C93A3E5B0E0E3E5F0E080818D7F8C9307
:102ED000A3E5B0E0E3E5F0E080818B7F8C9377C1E0
:102EE000A3E5B0E0E3E5F0E080818E7F8C93A3E57D
:102EF000B0E0E3E5F0E0808182608C93A3E5B0E090
:102F0000E3E5F0E080818B7F8C9361C1A3E5B0E0C5
:102F1000E3E5F0E0808181608C93A3E5B0E0E3E538
:102F2000F0E0808182608C93A3E5B0E0E3E5F0E01F
:102F300080818B7F8C934BC1A3E5B0E0E3E5F0E0AB
:102F400080818E7F8C93A3E5B0E0E3E5F0E08081A3
:102F50008D7F8C93A3E5B0E0E3E5F0E080818460B1
:102F60008C9335C1A3E5B0E0E3E5F0E080818160BA
:102F70008C93A3E5B0E0E3E5F0E080818D7F8C9356
:102F8000A3E5B0E0E3E5F0E0808184608C931FC1AD
:102F9000A3E5B0E0E3E5F0E080818E7F8C93A3E5CC
:102FA000B0E0E3E5F0E0808182608C93A3E5B0E0DF
:102FB000E3E5F0E0808184608C9309C1A3E5B0E093
:102FC000E3E5F0E0808181608C93A3E5B0E0E3E588
:102FD000F0E0808182608C93A3E5B0E0E3E5F0E06F
:102FE000808184608C93F3C08981813009F0EFC0C7
:102FF0008A81282F30E03C832B838B819C81843015
:10300000910509F477C02B813C81253031058CF482
:103010008B819C818130910509F440C02B813C81DA
:103020002230310509F450C08B819C81009701F159
:10303000CEC02B813C812730310509F487C08B81BC
:103040009C81883091053CF42B813C8126303105F0
:1030500009F466C0BCC08B819C818830910509F45D
:103060008BC02B813C812930310509F49BC0AFC056
:10307000AEE4B0E0EEE4F0E080818E7F8C93AEE4CD
:10308000B0E0EEE4F0E080818D7F8C93AEE4B0E0C0
:10309000EEE4F0E080818B7F8C9399C0AEE4B0E0E9
:1030A000EEE4F0E0808181608C93AEE4B0E0EEE489
:1030B000F0E080818D7F8C93AEE4B0E0EEE4F0E050
:1030C00080818B7F8C9383C0AEE4B0E0EEE4F0E0CF
:1030D00080818E7F8C93AEE4B0E0EEE4F0E08081FE
:1030E00082608C93AEE4B0E0EEE4F0E080818B7F10
:1030F0008C936DC0AEE4B0E0EEE4F0E080818160DE
:103100008C93AEE4B0E0EEE4F0E0808182608C93DA
:10311000AEE4B0E0EEE4F0E080818B7F8C9357C0AA
:10312000AEE4B0E0EEE4F0E080818E7F8C93AEE41C
:10313000B0E0EEE4F0E080818D7F8C93AEE4B0E00F
:10314000EEE4F0E0808184608C9341C0AEE4B0E0B6
:10315000EEE4F0E0808181608C93AEE4B0E0EEE4D8
:10316000F0E080818D7F8C93AEE4B0E0EEE4F0E09F
:10317000808184608C932BC0AEE4B0E0EEE4F0E09C
:1031800080818E7F8C93AEE4B0E0EEE4F0E080814D
:1031900082608C93AEE4B0E0EEE4F0E08081846085
:1031A0008C9315C0AEE4B0E0EEE4F0E08081816085
:1031B0008C93AEE4B0E0EEE4F0E0808182608C932A
:1031C000AEE4B0E0EEE4F0E0808184608C9326967B
:1031D0000FB6F894DEBF0FBECDBFCF91DF9108953B
:1031E000DF93CF9300D000D00F92CDB7DEB78983A5
:1031F0007B836A838981282F30E03D832C838C81F7
:103200009D8181309105D1F02C813D8122303105A5
:103210002CF48C819D81009761F022C02C813D812E
:103220002230310591F08C819D8183309105A1F090
:1032300017C0ECE5F0E08A81808312C0EAE4F0E098
:103240008A819B81918380830BC0E8E4F0E08A81CE
:103250009B819183808304C0E3E4F0E08A818083D2
:103260000F900F900F900F900F90CF91DF910895D6
:103270000F931F93DF93CF9300D000D0CDB7DEB76D
:1032800089836A838981282F30E03C832B838B815B
:103290009C8181309105B1F1EB81FC81E230F10537
:1032A00034F42B813C812115310571F086C08B816E
:1032B0009C818230910509F444C0EB81FC81E330AC
:1032C000F10509F45DC079C00CE510E08A81882F12
:1032D00090E0A0E0B0E02FEF30E040E050E0BC0133
:1032E000CD010E94F01DDC01CB0124E630E040E07E
:1032F00050E0BC01CD010E940F1EDA01C901F801A6
:1033000080835BC00AE410E08A81882F90E0A0E00F
:10331000B0E02FEF3FEF40E050E0BC01CD010E9454
:10332000F01DDC01CB0124E630E040E050E0BC01C0
:10333000CD010E940F1EDA01C901F801918380833B
:103340003CC008E410E08A81882F90E0A0E0B0E063
:103350002FEF3FEF40E050E0BC01CD010E94F01D97
:10336000DC01CB0124E630E040E050E0BC01CD01BF
:103370000E940F1EDA01C901F801918380831DC0EC
:1033800003E410E08A81882F90E0A0E0B0E02FEF06
:1033900030E040E050E0BC01CD010E94F01DDC01B6
:1033A000CB0124E630E040E050E0BC01CD010E94BA
:1033B0000F1EDA01C901F80180830F900F900F9062
:1033C0000F90CF91DF911F910F910895DF93CF93CD
:1033D00000D0CDB7DEB79A838983E6E4F0E0898137
:1033E0009A81918380830F900F90CF91DF91089500
:1033F000DF93CF93CDB7DEB780E066E070E00E9448
:103400008B13809190009091910001969093910080
:1034100080939000809190009091910027E0803DF2
:10342000920719F481E0809395008091900090912B
:10343000910027E0803D920719F481E08093960087
:1034400080919000909191002FE0803A920719F4BA
:1034500081E080939700CF91DF910895DF93CF9320
:10346000CDB7DEB76C970FB6F894DEBF0FBECDBFF9
:1034700082E790E00E94441588E690E00E94D30D18
:1034800080E00E94F01328EF39E180E0B9010E944A
:10349000D41480E066E070E00E948B1383E060E06B
:1034A00040E00E94A30583E061E040E00E94A305A4
:1034B00083E062E040E00E94A30583E063E040E037
:1034C0000E94A30583E067E040E00E94A30582E03C
:1034D00060E042E00E94A30580E29EE40E94E619BB
:1034E0000E94520C3DC110929500109296001092CD
:1034F00097000E948B1C80919200813009F01AC1C4
:1035000010929200109296001092910010929000EA
:1035100003C082E00E94DA1B809196008823C9F3E1
:1035200080E00E94DA1B80E090E0A8E4B2E4898F9A
:103530009A8FAB8FBC8F698D7A8D8B8D9C8D20E09F
:1035400030E04AEF54E40E941F02DC01CB018D8B76
:103550009E8BAF8BB88F6D897E898F89988D20E087
:1035600030E040E85FE30E94790388232CF481E097
:1035700090E09C8B8B8B3FC06D897E898F89988D65
:1035800020E03FEF4FE757E40E94190318164CF56F
:10359000698D7A8D8B8D9C8D20E030E040E251E486
:1035A0000E941F02DC01CB01BC01CD010E94490039
:1035B000DC01CB019C8B8B8B0FC088EC90E09A8B4D
:1035C000898B89899A890197F1F79A8B898B8B89E5
:1035D0009C8901979C8B8B8B8B899C89009769F7C1
:1035E00014C06D897E898F89988D0E944900DC0105
:1035F000CB019C8B8B8B8B899C89988B8F878F853C
:1036000098890197F1F7988B8F8710929700109205
:1036100091001092900003C083E00E94DA1B809119
:1036200097008823C9F380E00E94DA1B80E090E0D5
:10363000A8E4B2E48B879C87AD87BE876B857C85C9
:103640008D859E8520E030E04AEF54E40E941F0201
:10365000DC01CB018F839887A987BA876F81788532
:1036600089859A8520E030E040E85FE30E94790395
:1036700088232CF481E090E09E838D833FC06F818E
:10368000788589859A8520E03FEF4FE757E40E94CF
:10369000190318164CF56B857C858D859E8520E079
:1036A00030E040E251E40E941F02DC01CB01BC018A
:1036B000CD010E944900DC01CB019E838D830FC0A8
:1036C00088EC90E09C838B838B819C810197F1F740
:1036D0009C838B838D819E8101979E838D838D81B9
:1036E0009E81009769F714C06F81788589859A85D6
:1036F0000E944900DC01CB019E838D838D819E81D8
:103700009A83898389819A810197F1F79A838983C2
:1037100010929700109291001092900003C084E0E4
:103720000E94DA1B809197008823C9F380E00E94F1
:10373000DA1B16C010929500109291001092900022
:1037400003C081E00E94DA1B809195008823C9F3B1
:1037500080E00E94DA1B809198008F5F8093980030
:1037600080919800843008F4BECE909199008091A9
:103770009800890F8093990080919900843049F4D2
:1037800080E00E94C31D0E948B1C80E00E94C31D2C
:103790000EC080919900883051F481E00E94C31DD1
:1037A0000E948B1C81E00E94C31D10929900109210
:1037B0009800D6CFDF93CF9300D00F92CDB7DEB76E
:1037C00089838981282F30E03B832A838A819B81EA
:1037D0008230910509F446C02A813B8123303105AE
:1037E00054F48A819B81009799F02A813B81213092
:1037F000310519F176C08A819B818330910509F4E6
:1038000046C02A813B812430310509F455C069C086
:1038100083E060E040E00E94D10783E061E040E0A7
:103820000E94D10783E062E040E00E94D10783E07C
:1038300063E040E00E94D10768C083E060E041E0BF
:103840000E94D10783E061E040E00E94D10783E05D
:1038500062E040E00E94D10783E063E041E00E9423
:10386000D10753C083E060E040E00E94D10783E0CD
:1038700061E041E00E94D10783E062E041E00E9404
:10388000D10783E063E040E00E94D1073EC083E0BF
:1038900060E041E00E94D10783E061E040E00E94E7
:1038A000D10783E062E040E00E94D10783E063E05B
:1038B00040E00E94D10729C083E060E040E00E9420
:1038C000D10783E061E040E00E94D10783E062E03D
:1038D00040E00E94D10783E063E041E00E94D1070D
:1038E00014C083E060E041E00E94D10783E061E022
:1038F00040E00E94D10783E062E040E00E94D107EF
:1039000083E063E041E00E94D1070F900F900F9099
:10391000CF91DF910895DF93CF93CDB7DEB76C974A
:103920000FB6F894DEBF0FBECDBF8CE291E090934E
:103930009400809393000BC12091930030919400E8
:1039400081E0B9010E94F01880E090E0AAE7B3E4BA
:10395000898F9A8FAB8FBC8F698D7A8D8B8D9C8D63
:1039600020E030E04AEF54E40E941F02DC01CB016A
:103970008D8B9E8BAF8BB88F6D897E898F89988D4B
:1039800020E030E040E85FE30E94790388232CF4D4
:1039900081E090E09C8B8B8B3FC06D897E898F8905
:1039A000988D20E03FEF4FE757E40E941903181667
:1039B0004CF5698D7A8D8B8D9C8D20E030E040E256
:1039C00051E40E941F02DC01CB01BC01CD010E9429
:1039D0004900DC01CB019C8B8B8B0FC088EC90E005
:1039E0009A8B898B89899A890197F1F79A8B898BB0
:1039F0008B899C8901979C8B8B8B8B899C890097E9
:103A000069F714C06D897E898F89988D0E9449005D
:103A1000DC01CB019C8B8B8B8B899C89988B8F874E
:103A20008F8598890197F1F7988B8F8782E060E006
:103A30000E949D09813009F080C081E0809392004E
:103A400083E067E041E00E94D10780E090E0AAEFC8
:103A5000B4E48B879C87AD87BE876B857C858D851D
:103A60009E8520E030E04AEF54E40E941F02DC0112
:103A7000CB018F839887A987BA876F8178858985DD
:103A80009A8520E030E040E85FE30E9479038823D4
:103A90002CF481E090E09E838D833FC06F81788518
:103AA00089859A8520E03FEF4FE757E40E9419038C
:103AB00018164CF56B857C858D859E8520E030E061
:103AC00040E251E40E941F02DC01CB01BC01CD01A8
:103AD0000E944900DC01CB019E838D830FC088ECDE
:103AE00090E09C838B838B819C810197F1F79C8371
:103AF0008B838D819E8101979E838D838D819E8195
:103B0000009769F714C06F81788589859A850E942E
:103B10004900DC01CB019E838D838D819E819A8338
:103B2000898389819A810197F1F79A83898383E058
:103B300067E040E00E94D10713C08091930090910C
:103B4000940088539F4F90939400809393008091AA
:103B500093009091940027E0813D920708F4ECCE09
:103B60001092910010929000109295001092960081
:103B7000109297006C960FB6F894DEBF0FBECDBFC3
:103B8000CF91DF910895DF93CF930F92CDB7DEB73A
:103B90008983109297001092910010929000898171
:103BA000882361F403C083E00E94DA1B80919700B0
:103BB0008823C9F380E00E94DA1B0EC0898181301E
:103BC00059F403C084E00E94DA1B80919700882397
:103BD000C9F380E00E94DA1B0F90CF91DF91089526
:103BE000629FD001739FF001829FE00DF11D649FE1
:103BF000E00DF11D929FF00D839FF00D749FF00D6D
:103C0000659FF00D9927729FB00DE11DF91F639F0D
:103C1000B00DE11DF91FBD01CF0111240895A1E2EE
:103C20001A2EAA1BBB1BFD010DC0AA1FBB1FEE1F36
:103C3000FF1FA217B307E407F50720F0A21BB30B81
:103C4000E40BF50B661F771F881F991F1A9469F7FD
:103C500060957095809590959B01AC01BD01CF0159
:103C600008952F923F924F925F926F927F928F9220
:103C70009F92AF92BF92CF92DF92EF92FF920F93FB
:103C80001F93CF93DF93CDB7DEB7CA1BDB0B0FB605
:103C9000F894DEBF0FBECDBF09942A8839884888C2
:103CA0005F846E847D848C849B84AA84B984C88458
:103CB000DF80EE80FD800C811B81AA81B981CE0F4F
:103CC000D11D0FB6F894DEBF0FBECDBFED01089534
:043CD000F894FFCF96
:103CD40000000000000000000102000002000000DB
:0C3CE40000000002010A020100000000C4
:00000001FF
